{
  "_format": "hh3-artifact-1",
  "contractName": "Identity",
  "sourceName": "contracts/Identity.sol",
  "abi": [
    {
      "anonymous": false,
      "inputs": [
        {
          "indexed": true,
          "internalType": "uint256",
          "name": "id",
          "type": "uint256"
        },
        {
          "indexed": false,
          "internalType": "bytes32",
          "name": "oldHash",
          "type": "bytes32"
        },
        {
          "indexed": false,
          "internalType": "bytes32",
          "name": "newHash",
          "type": "bytes32"
        }
      ],
      "name": "CompanyHashUpdated",
      "type": "event"
    },
    {
      "anonymous": false,
      "inputs": [
        {
          "indexed": true,
          "internalType": "uint256",
          "name": "id",
          "type": "uint256"
        }
      ],
      "name": "IdentityDeactivated",
      "type": "event"
    },
    {
      "anonymous": false,
      "inputs": [
        {
          "indexed": true,
          "internalType": "uint256",
          "name": "id",
          "type": "uint256"
        },
        {
          "indexed": false,
          "internalType": "bytes32",
          "name": "companyHash",
          "type": "bytes32"
        }
      ],
      "name": "IdentityReactivated",
      "type": "event"
    },
    {
      "anonymous": false,
      "inputs": [
        {
          "indexed": true,
          "internalType": "uint256",
          "name": "id",
          "type": "uint256"
        },
        {
          "indexed": true,
          "internalType": "address",
          "name": "owner",
          "type": "address"
        },
        {
          "indexed": false,
          "internalType": "bytes32",
          "name": "companyHash",
          "type": "bytes32"
        }
      ],
      "name": "IdentityRegistered",
      "type": "event"
    },
    {
      "inputs": [],
      "name": "deactivateIdentity",
      "outputs": [],
      "stateMutability": "nonpayable",
      "type": "function"
    },
    {
      "inputs": [
        {
          "internalType": "uint256",
          "name": "id",
          "type": "uint256"
        }
      ],
      "name": "getIdentity",
      "outputs": [
        {
          "components": [
            {
              "internalType": "uint256",
              "name": "id",
              "type": "uint256"
            },
            {
              "internalType": "address",
              "name": "owner",
              "type": "address"
            },
            {
              "internalType": "bytes32",
              "name": "companyHash",
              "type": "bytes32"
            },
            {
              "internalType": "bool",
              "name": "active",
              "type": "bool"
            },
            {
              "internalType": "uint256",
              "name": "registeredAt",
              "type": "uint256"
            }
          ],
          "internalType": "struct IIdentity.IdentityData",
          "name": "data",
          "type": "tuple"
        }
      ],
      "stateMutability": "view",
      "type": "function"
    },
    {
      "inputs": [
        {
          "internalType": "address",
          "name": "owner",
          "type": "address"
        }
      ],
      "name": "getIdentityByOwner",
      "outputs": [
        {
          "components": [
            {
              "internalType": "uint256",
              "name": "id",
              "type": "uint256"
            },
            {
              "internalType": "address",
              "name": "owner",
              "type": "address"
            },
            {
              "internalType": "bytes32",
              "name": "companyHash",
              "type": "bytes32"
            },
            {
              "internalType": "bool",
              "name": "active",
              "type": "bool"
            },
            {
              "internalType": "uint256",
              "name": "registeredAt",
              "type": "uint256"
            }
          ],
          "internalType": "struct IIdentity.IdentityData",
          "name": "data",
          "type": "tuple"
        }
      ],
      "stateMutability": "view",
      "type": "function"
    },
    {
      "inputs": [],
      "name": "getIdentityCount",
      "outputs": [
        {
          "internalType": "uint256",
          "name": "count",
          "type": "uint256"
        }
      ],
      "stateMutability": "view",
      "type": "function"
    },
    {
      "inputs": [
        {
          "internalType": "address",
          "name": "owner",
          "type": "address"
        }
      ],
      "name": "isActiveIdentity",
      "outputs": [
        {
          "internalType": "bool",
          "name": "isActive",
          "type": "bool"
        }
      ],
      "stateMutability": "view",
      "type": "function"
    },
    {
      "inputs": [
        {
          "internalType": "bytes32",
          "name": "companyHash",
          "type": "bytes32"
        }
      ],
      "name": "reactivateIdentity",
      "outputs": [],
      "stateMutability": "nonpayable",
      "type": "function"
    },
    {
      "inputs": [
        {
          "internalType": "bytes32",
          "name": "companyHash",
          "type": "bytes32"
        }
      ],
      "name": "registerIdentity",
      "outputs": [
        {
          "internalType": "uint256",
          "name": "id",
          "type": "uint256"
        }
      ],
      "stateMutability": "nonpayable",
      "type": "function"
    },
    {
      "inputs": [
        {
          "internalType": "bytes32",
          "name": "newHash",
          "type": "bytes32"
        }
      ],
      "name": "updateCompanyHash",
      "outputs": [],
      "stateMutability": "nonpayable",
      "type": "function"
    }
  ],
  "bytecode": "0x6080604052348015600e575f5ffd5b506111748061001c5f395ff3fe608060405234801561000f575f5ffd5b5060043610610086575f3560e01c806385e3f0581161005957806385e3f05814610112578063af8fe9ef14610142578063b203df401461015e578063d5c863811461018e57610086565b806306966d9c1461008a578063103d9fae14610094578063420ee969146100c4578063652cec06146100f4575b5f5ffd5b6100926101aa565b005b6100ae60048036038101906100a99190610b49565b6102e6565b6040516100bb9190610b8c565b60405180910390f35b6100de60048036038101906100d99190610bff565b610530565b6040516100eb9190610c44565b60405180910390f35b6100fc6105ab565b6040516101099190610b8c565b60405180910390f35b61012c60048036038101906101279190610c87565b6105b4565b6040516101399190610d54565b60405180910390f35b61015c60048036038101906101579190610b49565b6106bb565b005b61017860048036038101906101739190610bff565b6107f0565b6040516101859190610d54565b60405180910390f35b6101a860048036038101906101a39190610b49565b61092a565b005b5f60015f3373ffffffffffffffffffffffffffffffffffffffff1673ffffffffffffffffffffffffffffffffffffffff1681526020019081526020015f205490505f810361022d576040517f08c379a000000000000000000000000000000000000000000000000000000000815260040161022490610dc7565b60405180910390fd5b5f5f8281526020019081526020015f206003015f9054906101000a900460ff1661028c576040517f08c379a000000000000000000000000000000000000000000000000000000000815260040161028390610e2f565b60405180910390fd5b5f5f5f8381526020019081526020015f206003015f6101000a81548160ff021916908315150217905550807f2a5feaad227bba00e1bbde68e7404cac7bfafac5be099b6f32a864fb071a139860405160405180910390a250565b5f5f5f1b820361032b576040517f08c379a000000000000000000000000000000000000000000000000000000000815260040161032290610ebd565b60405180910390fd5b5f60015f3373ffffffffffffffffffffffffffffffffffffffff1673ffffffffffffffffffffffffffffffffffffffff1681526020019081526020015f2054146103aa576040517f08c379a00000000000000000000000000000000000000000000000000000000081526004016103a190610f25565b60405180910390fd5b60025f8154809291906103bc90610f70565b919050555060025490506040518060a001604052808281526020013373ffffffffffffffffffffffffffffffffffffffff168152602001838152602001600115158152602001428152505f5f8381526020019081526020015f205f820151815f01556020820151816001015f6101000a81548173ffffffffffffffffffffffffffffffffffffffff021916908373ffffffffffffffffffffffffffffffffffffffff160217905550604082015181600201556060820151816003015f6101000a81548160ff021916908315150217905550608082015181600401559050508060015f3373ffffffffffffffffffffffffffffffffffffffff1673ffffffffffffffffffffffffffffffffffffffff1681526020019081526020015f20819055503373ffffffffffffffffffffffffffffffffffffffff16817f880c2cdc6a0751ea14844fceb928efb7936b635b10b87dfd444101253cea0532846040516105239190610fc6565b60405180910390a3919050565b5f5f60015f8473ffffffffffffffffffffffffffffffffffffffff1673ffffffffffffffffffffffffffffffffffffffff1681526020019081526020015f205490505f8103610582575f9150506105a6565b5f5f8281526020019081526020015f206003015f9054906101000a900460ff169150505b919050565b5f600254905090565b6105bc610ad0565b5f82141580156105ce57506002548211155b61060d576040517f08c379a000000000000000000000000000000000000000000000000000000000815260040161060490611029565b60405180910390fd5b5f5f8381526020019081526020015f206040518060a00160405290815f8201548152602001600182015f9054906101000a900473ffffffffffffffffffffffffffffffffffffffff1673ffffffffffffffffffffffffffffffffffffffff1673ffffffffffffffffffffffffffffffffffffffff16815260200160028201548152602001600382015f9054906101000a900460ff161515151581526020016004820154815250509050919050565b5f5f1b81036106ff576040517f08c379a00000000000000000000000000000000000000000000000000000000081526004016106f690610ebd565b60405180910390fd5b5f60015f3373ffffffffffffffffffffffffffffffffffffffff1673ffffffffffffffffffffffffffffffffffffffff1681526020019081526020015f205490505f8103610782576040517f08c379a000000000000000000000000000000000000000000000000000000000815260040161077990610dc7565b60405180910390fd5b5f5f5f8381526020019081526020015f20600201549050825f5f8481526020019081526020015f2060020181905550817f850c62e46b053b5b18beddf389de503d07fefaa9e1ca7aff8ec49f733dc11a6582856040516107e3929190611047565b60405180910390a2505050565b6107f8610ad0565b5f60015f8473ffffffffffffffffffffffffffffffffffffffff1673ffffffffffffffffffffffffffffffffffffffff1681526020019081526020015f205490505f810361087b576040517f08c379a0000000000000000000000000000000000000000000000000000000008152600401610872906110b8565b60405180910390fd5b5f5f8281526020019081526020015f206040518060a00160405290815f8201548152602001600182015f9054906101000a900473ffffffffffffffffffffffffffffffffffffffff1673ffffffffffffffffffffffffffffffffffffffff1673ffffffffffffffffffffffffffffffffffffffff16815260200160028201548152602001600382015f9054906101000a900460ff16151515158152602001600482015481525050915050919050565b5f5f1b810361096e576040517f08c379a000000000000000000000000000000000000000000000000000000000815260040161096590610ebd565b60405180910390fd5b5f60015f3373ffffffffffffffffffffffffffffffffffffffff1673ffffffffffffffffffffffffffffffffffffffff1681526020019081526020015f205490505f81036109f1576040517f08c379a00000000000000000000000000000000000000000000000000000000081526004016109e890610dc7565b60405180910390fd5b5f5f8281526020019081526020015f206003015f9054906101000a900460ff1615610a51576040517f08c379a0000000000000000000000000000000000000000000000000000000008152600401610a4890611120565b60405180910390fd5b60015f5f8381526020019081526020015f206003015f6101000a81548160ff021916908315150217905550815f5f8381526020019081526020015f2060020181905550807f24ea75202561d05bce816d5445bf8038ec09e15dde3331a3c2ef2073932db73e83604051610ac49190610fc6565b60405180910390a25050565b6040518060a001604052805f81526020015f73ffffffffffffffffffffffffffffffffffffffff1681526020015f81526020015f151581526020015f81525090565b5f5ffd5b5f819050919050565b610b2881610b16565b8114610b32575f5ffd5b50565b5f81359050610b4381610b1f565b92915050565b5f60208284031215610b5e57610b5d610b12565b5b5f610b6b84828501610b35565b91505092915050565b5f819050919050565b610b8681610b74565b82525050565b5f602082019050610b9f5f830184610b7d565b92915050565b5f73ffffffffffffffffffffffffffffffffffffffff82169050919050565b5f610bce82610ba5565b9050919050565b610bde81610bc4565b8114610be8575f5ffd5b50565b5f81359050610bf981610bd5565b92915050565b5f60208284031215610c1457610c13610b12565b5b5f610c2184828501610beb565b91505092915050565b5f8115159050919050565b610c3e81610c2a565b82525050565b5f602082019050610c575f830184610c35565b92915050565b610c6681610b74565b8114610c70575f5ffd5b50565b5f81359050610c8181610c5d565b92915050565b5f60208284031215610c9c57610c9b610b12565b5b5f610ca984828501610c73565b91505092915050565b610cbb81610b74565b82525050565b610cca81610bc4565b82525050565b610cd981610b16565b82525050565b610ce881610c2a565b82525050565b60a082015f820151610d025f850182610cb2565b506020820151610d156020850182610cc1565b506040820151610d286040850182610cd0565b506060820151610d3b6060850182610cdf565b506080820151610d4e6080850182610cb2565b50505050565b5f60a082019050610d675f830184610cee565b92915050565b5f82825260208201905092915050565b7f4964656e746974793a206e6f74207265676973746572656400000000000000005f82015250565b5f610db1601883610d6d565b9150610dbc82610d7d565b602082019050919050565b5f6020820190508181035f830152610dde81610da5565b9050919050565b7f4964656e746974793a20616c726561647920696e6163746976650000000000005f82015250565b5f610e19601a83610d6d565b9150610e2482610de5565b602082019050919050565b5f6020820190508181035f830152610e4681610e0d565b9050919050565b7f4964656e746974793a20636f6d70616e79486173682063616e6e6f74206265205f8201527f7a65726f00000000000000000000000000000000000000000000000000000000602082015250565b5f610ea7602483610d6d565b9150610eb282610e4d565b604082019050919050565b5f6020820190508181035f830152610ed481610e9b565b9050919050565b7f4964656e746974793a20616c72656164792072656769737465726564000000005f82015250565b5f610f0f601c83610d6d565b9150610f1a82610edb565b602082019050919050565b5f6020820190508181035f830152610f3c81610f03565b9050919050565b7f4e487b71000000000000000000000000000000000000000000000000000000005f52601160045260245ffd5b5f610f7a82610b74565b91507fffffffffffffffffffffffffffffffffffffffffffffffffffffffffffffffff8203610fac57610fab610f43565b5b600182019050919050565b610fc081610b16565b82525050565b5f602082019050610fd95f830184610fb7565b92915050565b7f4964656e746974793a20696e76616c69642069640000000000000000000000005f82015250565b5f611013601483610d6d565b915061101e82610fdf565b602082019050919050565b5f6020820190508181035f83015261104081611007565b9050919050565b5f60408201905061105a5f830185610fb7565b6110676020830184610fb7565b9392505050565b7f4964656e746974793a206f776e657220686173206e6f206964656e74697479005f82015250565b5f6110a2601f83610d6d565b91506110ad8261106e565b602082019050919050565b5f6020820190508181035f8301526110cf81611096565b9050919050565b7f4964656e746974793a20616c72656164792061637469766500000000000000005f82015250565b5f61110a601883610d6d565b9150611115826110d6565b602082019050919050565b5f6020820190508181035f830152611137816110fe565b905091905056fea2646970667358221220ff99b3d96d417d8073fe0772f53ad2fab3e40ce6a6ffcffe44a1c4cd342a5a8264736f6c634300081c0033",
  "linkReferences": {},
  "deployedLinkReferences": {},
  "immutableReferences": {},
  "inputSourceName": "project/contracts/Identity.sol",
  "buildInfoId": "solc-0_8_28-536d8a95bd7ef7d7783ef24f3b57f3dffc7920c7"
}