{
  "_format": "hh3-artifact-1",
  "contractName": "Identity",
  "sourceName": "contracts/Identity.sol",
  "abi": [
    {
      "inputs": [
        {
          "internalType": "address",
          "name": "initialOwner",
          "type": "address"
        },
        {
          "internalType": "address",
          "name": "initialRegistry",
          "type": "address"
        }
      ],
      "stateMutability": "nonpayable",
      "type": "constructor"
    },
    {
      "anonymous": false,
      "inputs": [
        {
          "indexed": true,
          "internalType": "uint256",
          "name": "id",
          "type": "uint256"
        },
        {
          "indexed": false,
          "internalType": "bytes32",
          "name": "oldHash",
          "type": "bytes32"
        },
        {
          "indexed": false,
          "internalType": "bytes32",
          "name": "newHash",
          "type": "bytes32"
        }
      ],
      "name": "CompanyHashUpdated",
      "type": "event"
    },
    {
      "anonymous": false,
      "inputs": [
        {
          "indexed": true,
          "internalType": "uint256",
          "name": "id",
          "type": "uint256"
        }
      ],
      "name": "IdentityDeactivated",
      "type": "event"
    },
    {
      "anonymous": false,
      "inputs": [
        {
          "indexed": true,
          "internalType": "uint256",
          "name": "id",
          "type": "uint256"
        },
        {
          "indexed": false,
          "internalType": "bytes32",
          "name": "companyHash",
          "type": "bytes32"
        }
      ],
      "name": "IdentityReactivated",
      "type": "event"
    },
    {
      "anonymous": false,
      "inputs": [
        {
          "indexed": true,
          "internalType": "uint256",
          "name": "id",
          "type": "uint256"
        },
        {
          "indexed": true,
          "internalType": "address",
          "name": "owner",
          "type": "address"
        },
        {
          "indexed": false,
          "internalType": "bytes32",
          "name": "companyHash",
          "type": "bytes32"
        }
      ],
      "name": "IdentityRegistered",
      "type": "event"
    },
    {
      "anonymous": false,
      "inputs": [
        {
          "indexed": true,
          "internalType": "address",
          "name": "oldOwner",
          "type": "address"
        },
        {
          "indexed": true,
          "internalType": "address",
          "name": "newOwner",
          "type": "address"
        }
      ],
      "name": "OwnershipTransferred",
      "type": "event"
    },
    {
      "anonymous": false,
      "inputs": [
        {
          "indexed": false,
          "internalType": "bool",
          "name": "paused",
          "type": "bool"
        }
      ],
      "name": "RegistrationPausedSet",
      "type": "event"
    },
    {
      "anonymous": false,
      "inputs": [
        {
          "indexed": true,
          "internalType": "address",
          "name": "oldRegistry",
          "type": "address"
        },
        {
          "indexed": true,
          "internalType": "address",
          "name": "newRegistry",
          "type": "address"
        }
      ],
      "name": "RegistrySet",
      "type": "event"
    },
    {
      "inputs": [
        {
          "internalType": "uint256",
          "name": "identityId",
          "type": "uint256"
        }
      ],
      "name": "deactivateIdentity",
      "outputs": [],
      "stateMutability": "nonpayable",
      "type": "function"
    },
    {
      "inputs": [
        {
          "internalType": "uint256",
          "name": "id",
          "type": "uint256"
        }
      ],
      "name": "getIdentity",
      "outputs": [
        {
          "components": [
            {
              "internalType": "uint256",
              "name": "id",
              "type": "uint256"
            },
            {
              "internalType": "address",
              "name": "owner",
              "type": "address"
            },
            {
              "internalType": "bytes32",
              "name": "companyHash",
              "type": "bytes32"
            },
            {
              "internalType": "bool",
              "name": "active",
              "type": "bool"
            },
            {
              "internalType": "uint256",
              "name": "registeredAt",
              "type": "uint256"
            }
          ],
          "internalType": "struct IIdentity.IdentityData",
          "name": "data",
          "type": "tuple"
        }
      ],
      "stateMutability": "view",
      "type": "function"
    },
    {
      "inputs": [
        {
          "internalType": "address",
          "name": "account",
          "type": "address"
        }
      ],
      "name": "getIdentityByOwner",
      "outputs": [
        {
          "components": [
            {
              "internalType": "uint256",
              "name": "id",
              "type": "uint256"
            },
            {
              "internalType": "address",
              "name": "owner",
              "type": "address"
            },
            {
              "internalType": "bytes32",
              "name": "companyHash",
              "type": "bytes32"
            },
            {
              "internalType": "bool",
              "name": "active",
              "type": "bool"
            },
            {
              "internalType": "uint256",
              "name": "registeredAt",
              "type": "uint256"
            }
          ],
          "internalType": "struct IIdentity.IdentityData",
          "name": "data",
          "type": "tuple"
        }
      ],
      "stateMutability": "view",
      "type": "function"
    },
    {
      "inputs": [],
      "name": "getIdentityCount",
      "outputs": [
        {
          "internalType": "uint256",
          "name": "count",
          "type": "uint256"
        }
      ],
      "stateMutability": "view",
      "type": "function"
    },
    {
      "inputs": [
        {
          "internalType": "address",
          "name": "account",
          "type": "address"
        }
      ],
      "name": "isActiveIdentity",
      "outputs": [
        {
          "internalType": "bool",
          "name": "isActive",
          "type": "bool"
        }
      ],
      "stateMutability": "view",
      "type": "function"
    },
    {
      "inputs": [],
      "name": "owner",
      "outputs": [
        {
          "internalType": "address",
          "name": "",
          "type": "address"
        }
      ],
      "stateMutability": "view",
      "type": "function"
    },
    {
      "inputs": [
        {
          "internalType": "uint256",
          "name": "identityId",
          "type": "uint256"
        },
        {
          "internalType": "bytes32",
          "name": "companyHash",
          "type": "bytes32"
        }
      ],
      "name": "reactivateIdentity",
      "outputs": [],
      "stateMutability": "nonpayable",
      "type": "function"
    },
    {
      "inputs": [
        {
          "internalType": "address",
          "name": "ownerAddress",
          "type": "address"
        },
        {
          "internalType": "bytes32",
          "name": "companyHash",
          "type": "bytes32"
        }
      ],
      "name": "registerIdentity",
      "outputs": [
        {
          "internalType": "uint256",
          "name": "id",
          "type": "uint256"
        }
      ],
      "stateMutability": "nonpayable",
      "type": "function"
    },
    {
      "inputs": [],
      "name": "registrationPaused",
      "outputs": [
        {
          "internalType": "bool",
          "name": "",
          "type": "bool"
        }
      ],
      "stateMutability": "view",
      "type": "function"
    },
    {
      "inputs": [],
      "name": "registry",
      "outputs": [
        {
          "internalType": "address",
          "name": "",
          "type": "address"
        }
      ],
      "stateMutability": "view",
      "type": "function"
    },
    {
      "inputs": [
        {
          "internalType": "bytes32",
          "name": "companyHash",
          "type": "bytes32"
        }
      ],
      "name": "selfRegister",
      "outputs": [
        {
          "internalType": "uint256",
          "name": "id",
          "type": "uint256"
        }
      ],
      "stateMutability": "nonpayable",
      "type": "function"
    },
    {
      "inputs": [
        {
          "internalType": "bool",
          "name": "paused",
          "type": "bool"
        }
      ],
      "name": "setRegistrationPaused",
      "outputs": [],
      "stateMutability": "nonpayable",
      "type": "function"
    },
    {
      "inputs": [
        {
          "internalType": "address",
          "name": "newRegistry",
          "type": "address"
        }
      ],
      "name": "setRegistry",
      "outputs": [],
      "stateMutability": "nonpayable",
      "type": "function"
    },
    {
      "inputs": [
        {
          "internalType": "address",
          "name": "newOwner",
          "type": "address"
        }
      ],
      "name": "transferIdentityOwnership",
      "outputs": [],
      "stateMutability": "nonpayable",
      "type": "function"
    },
    {
      "inputs": [
        {
          "internalType": "address",
          "name": "newOwner",
          "type": "address"
        }
      ],
      "name": "transferOwnership",
      "outputs": [],
      "stateMutability": "nonpayable",
      "type": "function"
    },
    {
      "inputs": [
        {
          "internalType": "bytes32",
          "name": "newHash",
          "type": "bytes32"
        }
      ],
      "name": "updateCompanyHash",
      "outputs": [],
      "stateMutability": "nonpayable",
      "type": "function"
    }
  ],
  "bytecode": "0x608060405234801561000f575f5ffd5b5060405161273b38038061273b8339818101604052810190610031919061019e565b5f73ffffffffffffffffffffffffffffffffffffffff168273ffffffffffffffffffffffffffffffffffffffff160361009f576040517f08c379a000000000000000000000000000000000000000000000000000000000815260040161009690610236565b60405180910390fd5b8160035f6101000a81548173ffffffffffffffffffffffffffffffffffffffff021916908373ffffffffffffffffffffffffffffffffffffffff1602179055508060045f6101000a81548173ffffffffffffffffffffffffffffffffffffffff021916908373ffffffffffffffffffffffffffffffffffffffff1602179055505f600460146101000a81548160ff0219169083151502179055505050610254565b5f5ffd5b5f73ffffffffffffffffffffffffffffffffffffffff82169050919050565b5f61016d82610144565b9050919050565b61017d81610163565b8114610187575f5ffd5b50565b5f8151905061019881610174565b92915050565b5f5f604083850312156101b4576101b3610140565b5b5f6101c18582860161018a565b92505060206101d28582860161018a565b9150509250929050565b5f82825260208201905092915050565b7f4964656e746974793a206f776e6572206973207a65726f2061646472657373005f82015250565b5f610220601f836101dc565b915061022b826101ec565b602082019050919050565b5f6020820190508181035f83015261024d81610214565b9050919050565b6124da806102615f395ff3fe608060405234801561000f575f5ffd5b50600436106100fe575f3560e01c80639abbbd3b11610095578063b222cb0b11610064578063b222cb0b14610296578063b3397a58146102c6578063e2706d07146102e2578063f2fde38b14610312576100fe565b80639abbbd3b14610210578063a91ee0dc1461022e578063af8fe9ef1461024a578063b203df4014610266576100fe565b80637b103999116100d15780637b103999146101885780638037a395146101a657806385e3f058146101c25780638da5cb5b146101f2576100fe565b806304d511c814610102578063420ee9691461011e57806342f153a21461014e578063652cec061461016a575b5f5ffd5b61011c600480360381019061011791906119de565b61032e565b005b61013860048036038101906101339190611a63565b61058b565b6040516101459190611aa8565b60405180910390f35b61016860048036038101906101639190611a63565b610606565b005b6101726108b1565b60405161017f9190611ad0565b60405180910390f35b6101906108ba565b60405161019d9190611af8565b60405180910390f35b6101c060048036038101906101bb9190611b44565b6108df565b005b6101dc60048036038101906101d791906119de565b610b39565b6040516101e99190611c24565b60405180910390f35b6101fa610c40565b6040516102079190611af8565b60405180910390f35b610218610c65565b6040516102259190611aa8565b60405180910390f35b61024860048036038101906102439190611a63565b610c78565b005b610264600480360381019061025f9190611c3d565b610dca565b005b610280600480360381019061027b9190611a63565b610eff565b60405161028d9190611c24565b60405180910390f35b6102b060048036038101906102ab9190611c3d565b611039565b6040516102bd9190611ad0565b60405180910390f35b6102e060048036038101906102db9190611c92565b6112d3565b005b6102fc60048036038101906102f79190611cbd565b6113b6565b6040516103099190611ad0565b60405180910390f35b61032c60048036038101906103279190611a63565b6117a5565b005b5f811415801561034057506002548111155b61037f576040517f08c379a000000000000000000000000000000000000000000000000000000000815260040161037690611d55565b60405180910390fd5b5f5f8281526020019081526020015f206003015f9054906101000a900460ff166103de576040517f08c379a00000000000000000000000000000000000000000000000000000000081526004016103d590611dbd565b60405180910390fd5b5f5f5f8381526020019081526020015f206001015f9054906101000a900473ffffffffffffffffffffffffffffffffffffffff16905060035f9054906101000a900473ffffffffffffffffffffffffffffffffffffffff1673ffffffffffffffffffffffffffffffffffffffff163373ffffffffffffffffffffffffffffffffffffffff1614806104bb575060045f9054906101000a900473ffffffffffffffffffffffffffffffffffffffff1673ffffffffffffffffffffffffffffffffffffffff163373ffffffffffffffffffffffffffffffffffffffff16145b806104f157508073ffffffffffffffffffffffffffffffffffffffff163373ffffffffffffffffffffffffffffffffffffffff16145b610530576040517f08c379a000000000000000000000000000000000000000000000000000000000815260040161052790611e4b565b60405180910390fd5b5f5f5f8481526020019081526020015f206003015f6101000a81548160ff021916908315150217905550817f2a5feaad227bba00e1bbde68e7404cac7bfafac5be099b6f32a864fb071a139860405160405180910390a25050565b5f5f60015f8473ffffffffffffffffffffffffffffffffffffffff1673ffffffffffffffffffffffffffffffffffffffff1681526020019081526020015f205490505f81036105dd575f915050610601565b5f5f8281526020019081526020015f206003015f9054906101000a900460ff169150505b919050565b5f73ffffffffffffffffffffffffffffffffffffffff168173ffffffffffffffffffffffffffffffffffffffff1603610674576040517f08c379a000000000000000000000000000000000000000000000000000000000815260040161066b90611ed9565b60405180910390fd5b5f60015f3373ffffffffffffffffffffffffffffffffffffffff1673ffffffffffffffffffffffffffffffffffffffff1681526020019081526020015f205490505f81036106f7576040517f08c379a00000000000000000000000000000000000000000000000000000000081526004016106ee90611f41565b60405180910390fd5b5f60015f8473ffffffffffffffffffffffffffffffffffffffff1673ffffffffffffffffffffffffffffffffffffffff1681526020019081526020015f205414610776576040517f08c379a000000000000000000000000000000000000000000000000000000000815260040161076d90611fcf565b60405180910390fd5b815f5f8381526020019081526020015f206001015f6101000a81548173ffffffffffffffffffffffffffffffffffffffff021916908373ffffffffffffffffffffffffffffffffffffffff1602179055508060015f8473ffffffffffffffffffffffffffffffffffffffff1673ffffffffffffffffffffffffffffffffffffffff1681526020019081526020015f20819055505f60015f3373ffffffffffffffffffffffffffffffffffffffff1673ffffffffffffffffffffffffffffffffffffffff1681526020019081526020015f20819055508173ffffffffffffffffffffffffffffffffffffffff16817f880c2cdc6a0751ea14844fceb928efb7936b635b10b87dfd444101253cea05325f5f8581526020019081526020015f20600201546040516108a59190611ffc565b60405180910390a35050565b5f600254905090565b60045f9054906101000a900473ffffffffffffffffffffffffffffffffffffffff1681565b60035f9054906101000a900473ffffffffffffffffffffffffffffffffffffffff1673ffffffffffffffffffffffffffffffffffffffff163373ffffffffffffffffffffffffffffffffffffffff161480610986575060045f9054906101000a900473ffffffffffffffffffffffffffffffffffffffff1673ffffffffffffffffffffffffffffffffffffffff163373ffffffffffffffffffffffffffffffffffffffff16145b6109c5576040517f08c379a00000000000000000000000000000000000000000000000000000000081526004016109bc90612085565b60405180910390fd5b5f82141580156109d757506002548211155b610a16576040517f08c379a0000000000000000000000000000000000000000000000000000000008152600401610a0d90611d55565b60405180910390fd5b5f5f8381526020019081526020015f206003015f9054906101000a900460ff1615610a76576040517f08c379a0000000000000000000000000000000000000000000000000000000008152600401610a6d906120ed565b60405180910390fd5b5f5f1b8103610aba576040517f08c379a0000000000000000000000000000000000000000000000000000000008152600401610ab19061217b565b60405180910390fd5b60015f5f8481526020019081526020015f206003015f6101000a81548160ff021916908315150217905550805f5f8481526020019081526020015f2060020181905550817f24ea75202561d05bce816d5445bf8038ec09e15dde3331a3c2ef2073932db73e82604051610b2d9190611ffc565b60405180910390a25050565b610b41611965565b5f8214158015610b5357506002548211155b610b92576040517f08c379a0000000000000000000000000000000000000000000000000000000008152600401610b89906121e3565b60405180910390fd5b5f5f8381526020019081526020015f206040518060a00160405290815f8201548152602001600182015f9054906101000a900473ffffffffffffffffffffffffffffffffffffffff1673ffffffffffffffffffffffffffffffffffffffff1673ffffffffffffffffffffffffffffffffffffffff16815260200160028201548152602001600382015f9054906101000a900460ff161515151581526020016004820154815250509050919050565b60035f9054906101000a900473ffffffffffffffffffffffffffffffffffffffff1681565b600460149054906101000a900460ff1681565b60035f9054906101000a900473ffffffffffffffffffffffffffffffffffffffff1673ffffffffffffffffffffffffffffffffffffffff163373ffffffffffffffffffffffffffffffffffffffff1614610d07576040517f08c379a0000000000000000000000000000000000000000000000000000000008152600401610cfe9061224b565b60405180910390fd5b5f60045f9054906101000a900473ffffffffffffffffffffffffffffffffffffffff1690508160045f6101000a81548173ffffffffffffffffffffffffffffffffffffffff021916908373ffffffffffffffffffffffffffffffffffffffff1602179055508173ffffffffffffffffffffffffffffffffffffffff168173ffffffffffffffffffffffffffffffffffffffff167f363c56730e510c61b9b1c8da206585b5f5fa0eb1f76e05c2fcf82ee006fff9f560405160405180910390a35050565b5f60015f3373ffffffffffffffffffffffffffffffffffffffff1673ffffffffffffffffffffffffffffffffffffffff1681526020019081526020015f205490505f8103610e4d576040517f08c379a0000000000000000000000000000000000000000000000000000000008152600401610e4490611f41565b60405180910390fd5b5f5f1b8203610e91576040517f08c379a0000000000000000000000000000000000000000000000000000000008152600401610e889061217b565b60405180910390fd5b5f5f5f8381526020019081526020015f20600201549050825f5f8481526020019081526020015f2060020181905550817f850c62e46b053b5b18beddf389de503d07fefaa9e1ca7aff8ec49f733dc11a658285604051610ef2929190612269565b60405180910390a2505050565b610f07611965565b5f60015f8473ffffffffffffffffffffffffffffffffffffffff1673ffffffffffffffffffffffffffffffffffffffff1681526020019081526020015f205490505f8103610f8a576040517f08c379a0000000000000000000000000000000000000000000000000000000008152600401610f81906122da565b60405180910390fd5b5f5f8281526020019081526020015f206040518060a00160405290815f8201548152602001600182015f9054906101000a900473ffffffffffffffffffffffffffffffffffffffff1673ffffffffffffffffffffffffffffffffffffffff1673ffffffffffffffffffffffffffffffffffffffff16815260200160028201548152602001600382015f9054906101000a900460ff16151515158152602001600482015481525050915050919050565b5f600460149054906101000a900460ff161561108a576040517f08c379a000000000000000000000000000000000000000000000000000000000815260040161108190612342565b60405180910390fd5b5f5f1b82036110ce576040517f08c379a00000000000000000000000000000000000000000000000000000000081526004016110c59061217b565b60405180910390fd5b5f60015f3373ffffffffffffffffffffffffffffffffffffffff1673ffffffffffffffffffffffffffffffffffffffff1681526020019081526020015f20541461114d576040517f08c379a0000000000000000000000000000000000000000000000000000000008152600401611144906123aa565b60405180910390fd5b60025f81548092919061115f906123f5565b919050555060025490506040518060a001604052808281526020013373ffffffffffffffffffffffffffffffffffffffff168152602001838152602001600115158152602001428152505f5f8381526020019081526020015f205f820151815f01556020820151816001015f6101000a81548173ffffffffffffffffffffffffffffffffffffffff021916908373ffffffffffffffffffffffffffffffffffffffff160217905550604082015181600201556060820151816003015f6101000a81548160ff021916908315150217905550608082015181600401559050508060015f3373ffffffffffffffffffffffffffffffffffffffff1673ffffffffffffffffffffffffffffffffffffffff1681526020019081526020015f20819055503373ffffffffffffffffffffffffffffffffffffffff16817f880c2cdc6a0751ea14844fceb928efb7936b635b10b87dfd444101253cea0532846040516112c69190611ffc565b60405180910390a3919050565b60035f9054906101000a900473ffffffffffffffffffffffffffffffffffffffff1673ffffffffffffffffffffffffffffffffffffffff163373ffffffffffffffffffffffffffffffffffffffff1614611362576040517f08c379a00000000000000000000000000000000000000000000000000000000081526004016113599061224b565b60405180910390fd5b80600460146101000a81548160ff0219169083151502179055507f7b24f4ad3ea79ee6566d48759bd42172f8ccc77f3f0017ee90f60ee59b7475d2816040516113ab9190611aa8565b60405180910390a150565b5f60035f9054906101000a900473ffffffffffffffffffffffffffffffffffffffff1673ffffffffffffffffffffffffffffffffffffffff163373ffffffffffffffffffffffffffffffffffffffff16148061145e575060045f9054906101000a900473ffffffffffffffffffffffffffffffffffffffff1673ffffffffffffffffffffffffffffffffffffffff163373ffffffffffffffffffffffffffffffffffffffff16145b61149d576040517f08c379a000000000000000000000000000000000000000000000000000000000815260040161149490612085565b60405180910390fd5b600460149054906101000a900460ff16156114ed576040517f08c379a00000000000000000000000000000000000000000000000000000000081526004016114e490612342565b60405180910390fd5b5f73ffffffffffffffffffffffffffffffffffffffff168373ffffffffffffffffffffffffffffffffffffffff160361155b576040517f08c379a000000000000000000000000000000000000000000000000000000000815260040161155290612486565b60405180910390fd5b5f5f1b820361159f576040517f08c379a00000000000000000000000000000000000000000000000000000000081526004016115969061217b565b60405180910390fd5b5f60015f8573ffffffffffffffffffffffffffffffffffffffff1673ffffffffffffffffffffffffffffffffffffffff1681526020019081526020015f20541461161e576040517f08c379a0000000000000000000000000000000000000000000000000000000008152600401611615906123aa565b60405180910390fd5b60025f815480929190611630906123f5565b919050555060025490506040518060a001604052808281526020018473ffffffffffffffffffffffffffffffffffffffff168152602001838152602001600115158152602001428152505f5f8381526020019081526020015f205f820151815f01556020820151816001015f6101000a81548173ffffffffffffffffffffffffffffffffffffffff021916908373ffffffffffffffffffffffffffffffffffffffff160217905550604082015181600201556060820151816003015f6101000a81548160ff021916908315150217905550608082015181600401559050508060015f8573ffffffffffffffffffffffffffffffffffffffff1673ffffffffffffffffffffffffffffffffffffffff1681526020019081526020015f20819055508273ffffffffffffffffffffffffffffffffffffffff16817f880c2cdc6a0751ea14844fceb928efb7936b635b10b87dfd444101253cea0532846040516117979190611ffc565b60405180910390a392915050565b60035f9054906101000a900473ffffffffffffffffffffffffffffffffffffffff1673ffffffffffffffffffffffffffffffffffffffff163373ffffffffffffffffffffffffffffffffffffffff1614611834576040517f08c379a000000000000000000000000000000000000000000000000000000000815260040161182b9061224b565b60405180910390fd5b5f73ffffffffffffffffffffffffffffffffffffffff168173ffffffffffffffffffffffffffffffffffffffff16036118a2576040517f08c379a000000000000000000000000000000000000000000000000000000000815260040161189990611ed9565b60405180910390fd5b5f60035f9054906101000a900473ffffffffffffffffffffffffffffffffffffffff1690508160035f6101000a81548173ffffffffffffffffffffffffffffffffffffffff021916908373ffffffffffffffffffffffffffffffffffffffff1602179055508173ffffffffffffffffffffffffffffffffffffffff168173ffffffffffffffffffffffffffffffffffffffff167f8be0079c531659141344cd1fd0a4f28419497f9722a3daafe3b4186f6b6457e060405160405180910390a35050565b6040518060a001604052805f81526020015f73ffffffffffffffffffffffffffffffffffffffff1681526020015f81526020015f151581526020015f81525090565b5f5ffd5b5f819050919050565b6119bd816119ab565b81146119c7575f5ffd5b50565b5f813590506119d8816119b4565b92915050565b5f602082840312156119f3576119f26119a7565b5b5f611a00848285016119ca565b91505092915050565b5f73ffffffffffffffffffffffffffffffffffffffff82169050919050565b5f611a3282611a09565b9050919050565b611a4281611a28565b8114611a4c575f5ffd5b50565b5f81359050611a5d81611a39565b92915050565b5f60208284031215611a7857611a776119a7565b5b5f611a8584828501611a4f565b91505092915050565b5f8115159050919050565b611aa281611a8e565b82525050565b5f602082019050611abb5f830184611a99565b92915050565b611aca816119ab565b82525050565b5f602082019050611ae35f830184611ac1565b92915050565b611af281611a28565b82525050565b5f602082019050611b0b5f830184611ae9565b92915050565b5f819050919050565b611b2381611b11565b8114611b2d575f5ffd5b50565b5f81359050611b3e81611b1a565b92915050565b5f5f60408385031215611b5a57611b596119a7565b5b5f611b67858286016119ca565b9250506020611b7885828601611b30565b9150509250929050565b611b8b816119ab565b82525050565b611b9a81611a28565b82525050565b611ba981611b11565b82525050565b611bb881611a8e565b82525050565b60a082015f820151611bd25f850182611b82565b506020820151611be56020850182611b91565b506040820151611bf86040850182611ba0565b506060820151611c0b6060850182611baf565b506080820151611c1e6080850182611b82565b50505050565b5f60a082019050611c375f830184611bbe565b92915050565b5f60208284031215611c5257611c516119a7565b5b5f611c5f84828501611b30565b91505092915050565b611c7181611a8e565b8114611c7b575f5ffd5b50565b5f81359050611c8c81611c68565b92915050565b5f60208284031215611ca757611ca66119a7565b5b5f611cb484828501611c7e565b91505092915050565b5f5f60408385031215611cd357611cd26119a7565b5b5f611ce085828601611a4f565b9250506020611cf185828601611b30565b9150509250929050565b5f82825260208201905092915050565b7f4964656e746974793a20696e76616c6964206964656e746974794964000000005f82015250565b5f611d3f601c83611cfb565b9150611d4a82611d0b565b602082019050919050565b5f6020820190508181035f830152611d6c81611d33565b9050919050565b7f4964656e746974793a20616c726561647920696e6163746976650000000000005f82015250565b5f611da7601a83611cfb565b9150611db282611d73565b602082019050919050565b5f6020820190508181035f830152611dd481611d9b565b9050919050565b7f4964656e746974793a206e6f7420617574686f72697a656420746f20646561635f8201527f7469766174650000000000000000000000000000000000000000000000000000602082015250565b5f611e35602683611cfb565b9150611e4082611ddb565b604082019050919050565b5f6020820190508181035f830152611e6281611e29565b9050919050565b7f4964656e746974793a206e6577206f776e6572206973207a65726f20616464725f8201527f6573730000000000000000000000000000000000000000000000000000000000602082015250565b5f611ec3602383611cfb565b9150611ece82611e69565b604082019050919050565b5f6020820190508181035f830152611ef081611eb7565b9050919050565b7f4964656e746974793a206e6f74207265676973746572656400000000000000005f82015250565b5f611f2b601883611cfb565b9150611f3682611ef7565b602082019050919050565b5f6020820190508181035f830152611f5881611f1f565b9050919050565b7f4964656e746974793a206e6577206f776e657220616c726561647920686173205f8201527f6964656e74697479000000000000000000000000000000000000000000000000602082015250565b5f611fb9602883611cfb565b9150611fc482611f5f565b604082019050919050565b5f6020820190508181035f830152611fe681611fad565b9050919050565b611ff681611b11565b82525050565b5f60208201905061200f5f830184611fed565b92915050565b7f4964656e746974793a2063616c6c6572206973206e6f74206f776e6572206f725f8201527f2072656769737472790000000000000000000000000000000000000000000000602082015250565b5f61206f602983611cfb565b915061207a82612015565b604082019050919050565b5f6020820190508181035f83015261209c81612063565b9050919050565b7f4964656e746974793a20616c72656164792061637469766500000000000000005f82015250565b5f6120d7601883611cfb565b91506120e2826120a3565b602082019050919050565b5f6020820190508181035f830152612104816120cb565b9050919050565b7f4964656e746974793a20636f6d70616e79486173682063616e6e6f74206265205f8201527f7a65726f00000000000000000000000000000000000000000000000000000000602082015250565b5f612165602483611cfb565b91506121708261210b565b604082019050919050565b5f6020820190508181035f83015261219281612159565b9050919050565b7f4964656e746974793a20696e76616c69642069640000000000000000000000005f82015250565b5f6121cd601483611cfb565b91506121d882612199565b602082019050919050565b5f6020820190508181035f8301526121fa816121c1565b9050919050565b7f4964656e746974793a2063616c6c6572206973206e6f74206f776e65720000005f82015250565b5f612235601d83611cfb565b915061224082612201565b602082019050919050565b5f6020820190508181035f83015261226281612229565b9050919050565b5f60408201905061227c5f830185611fed565b6122896020830184611fed565b9392505050565b7f4964656e746974793a206f776e657220686173206e6f206964656e74697479005f82015250565b5f6122c4601f83611cfb565b91506122cf82612290565b602082019050919050565b5f6020820190508181035f8301526122f1816122b8565b9050919050565b7f4964656e746974793a20726567697374726174696f6e206973207061757365645f82015250565b5f61232c602083611cfb565b9150612337826122f8565b602082019050919050565b5f6020820190508181035f83015261235981612320565b9050919050565b7f4964656e746974793a20616c72656164792072656769737465726564000000005f82015250565b5f612394601c83611cfb565b915061239f82612360565b602082019050919050565b5f6020820190508181035f8301526123c181612388565b9050919050565b7f4e487b71000000000000000000000000000000000000000000000000000000005f52601160045260245ffd5b5f6123ff826119ab565b91507fffffffffffffffffffffffffffffffffffffffffffffffffffffffffffffffff8203612431576124306123c8565b5b600182019050919050565b7f4964656e746974793a206f776e6572206973207a65726f2061646472657373005f82015250565b5f612470601f83611cfb565b915061247b8261243c565b602082019050919050565b5f6020820190508181035f83015261249d81612464565b905091905056fea26469706673582212202b5e882d249c511fe7f279230ae0e3f52cab442ee8c1a9e90510817275a464fd64736f6c634300081c0033",
  "linkReferences": {},
  "deployedLinkReferences": {},
  "immutableReferences": {},
  "inputSourceName": "project/contracts/Identity.sol",
  "buildInfoId": "solc-0_8_28-5b95794abf94b5d366960db80222657f726683f5"
}