{
  "_format": "hh3-artifact-1",
  "contractName": "Reputation",
  "sourceName": "contracts/Reputation.sol",
  "abi": [
    {
      "inputs": [
        {
          "internalType": "address",
          "name": "registry",
          "type": "address"
        },
        {
          "internalType": "address",
          "name": "identity",
          "type": "address"
        }
      ],
      "stateMutability": "nonpayable",
      "type": "constructor"
    },
    {
      "anonymous": false,
      "inputs": [
        {
          "indexed": true,
          "internalType": "uint256",
          "name": "identityId",
          "type": "uint256"
        },
        {
          "indexed": false,
          "internalType": "uint256",
          "name": "completedDeals",
          "type": "uint256"
        },
        {
          "indexed": false,
          "internalType": "uint256",
          "name": "disputedDeals",
          "type": "uint256"
        },
        {
          "indexed": false,
          "internalType": "uint256",
          "name": "financedDeals",
          "type": "uint256"
        },
        {
          "indexed": false,
          "internalType": "uint256",
          "name": "totalVolume",
          "type": "uint256"
        },
        {
          "indexed": false,
          "internalType": "uint256",
          "name": "score",
          "type": "uint256"
        }
      ],
      "name": "ReputationUpdated",
      "type": "event"
    },
    {
      "anonymous": false,
      "inputs": [
        {
          "indexed": true,
          "internalType": "address",
          "name": "template",
          "type": "address"
        }
      ],
      "name": "TemplateAuthorized",
      "type": "event"
    },
    {
      "anonymous": false,
      "inputs": [
        {
          "indexed": true,
          "internalType": "address",
          "name": "template",
          "type": "address"
        }
      ],
      "name": "TemplateRevoked",
      "type": "event"
    },
    {
      "inputs": [],
      "name": "IDENTITY",
      "outputs": [
        {
          "internalType": "contract IIdentity",
          "name": "",
          "type": "address"
        }
      ],
      "stateMutability": "view",
      "type": "function"
    },
    {
      "inputs": [],
      "name": "REGISTRY",
      "outputs": [
        {
          "internalType": "address",
          "name": "",
          "type": "address"
        }
      ],
      "stateMutability": "view",
      "type": "function"
    },
    {
      "inputs": [
        {
          "internalType": "address",
          "name": "template",
          "type": "address"
        }
      ],
      "name": "authorizeTemplate",
      "outputs": [],
      "stateMutability": "nonpayable",
      "type": "function"
    },
    {
      "inputs": [
        {
          "internalType": "uint256",
          "name": "identityId",
          "type": "uint256"
        }
      ],
      "name": "getReputation",
      "outputs": [
        {
          "components": [
            {
              "internalType": "uint256",
              "name": "completedDeals",
              "type": "uint256"
            },
            {
              "internalType": "uint256",
              "name": "disputedDeals",
              "type": "uint256"
            },
            {
              "internalType": "uint256",
              "name": "financedDeals",
              "type": "uint256"
            },
            {
              "internalType": "uint256",
              "name": "totalVolume",
              "type": "uint256"
            },
            {
              "internalType": "uint256",
              "name": "score",
              "type": "uint256"
            }
          ],
          "internalType": "struct IReputation.ReputationData",
          "name": "data",
          "type": "tuple"
        }
      ],
      "stateMutability": "view",
      "type": "function"
    },
    {
      "inputs": [
        {
          "internalType": "address",
          "name": "template",
          "type": "address"
        }
      ],
      "name": "isAuthorizedTemplate",
      "outputs": [
        {
          "internalType": "bool",
          "name": "isAuthorized",
          "type": "bool"
        }
      ],
      "stateMutability": "view",
      "type": "function"
    },
    {
      "inputs": [
        {
          "internalType": "uint256",
          "name": "identityId",
          "type": "uint256"
        }
      ],
      "name": "recordDefault",
      "outputs": [],
      "stateMutability": "nonpayable",
      "type": "function"
    },
    {
      "inputs": [
        {
          "internalType": "uint256",
          "name": "identityId",
          "type": "uint256"
        }
      ],
      "name": "recordDispute",
      "outputs": [],
      "stateMutability": "nonpayable",
      "type": "function"
    },
    {
      "inputs": [
        {
          "internalType": "uint256",
          "name": "identityId",
          "type": "uint256"
        },
        {
          "internalType": "uint256",
          "name": "volume",
          "type": "uint256"
        }
      ],
      "name": "recordFinancedDeal",
      "outputs": [],
      "stateMutability": "nonpayable",
      "type": "function"
    },
    {
      "inputs": [
        {
          "internalType": "uint256",
          "name": "identityId",
          "type": "uint256"
        },
        {
          "internalType": "uint256",
          "name": "volume",
          "type": "uint256"
        }
      ],
      "name": "recordSuccessfulSettlement",
      "outputs": [],
      "stateMutability": "nonpayable",
      "type": "function"
    },
    {
      "inputs": [
        {
          "internalType": "address",
          "name": "template",
          "type": "address"
        }
      ],
      "name": "revokeTemplate",
      "outputs": [],
      "stateMutability": "nonpayable",
      "type": "function"
    }
  ],
  "bytecode": "0x60c060405234801561000f575f5ffd5b50604051611ae4380380611ae4833981810160405281019061003191906101da565b5f73ffffffffffffffffffffffffffffffffffffffff168273ffffffffffffffffffffffffffffffffffffffff160361009f576040517f08c379a000000000000000000000000000000000000000000000000000000000815260040161009690610298565b60405180910390fd5b5f73ffffffffffffffffffffffffffffffffffffffff168173ffffffffffffffffffffffffffffffffffffffff160361010d576040517f08c379a000000000000000000000000000000000000000000000000000000000815260040161010490610326565b60405180910390fd5b8173ffffffffffffffffffffffffffffffffffffffff1660808173ffffffffffffffffffffffffffffffffffffffff16815250508073ffffffffffffffffffffffffffffffffffffffff1660a08173ffffffffffffffffffffffffffffffffffffffff16815250505050610344565b5f5ffd5b5f73ffffffffffffffffffffffffffffffffffffffff82169050919050565b5f6101a982610180565b9050919050565b6101b98161019f565b81146101c3575f5ffd5b50565b5f815190506101d4816101b0565b92915050565b5f5f604083850312156101f0576101ef61017c565b5b5f6101fd858286016101c6565b925050602061020e858286016101c6565b9150509250929050565b5f82825260208201905092915050565b7f52657075746174696f6e3a207265676973747279206973207a65726f206164645f8201527f7265737300000000000000000000000000000000000000000000000000000000602082015250565b5f610282602483610218565b915061028d82610228565b604082019050919050565b5f6020820190508181035f8301526102af81610276565b9050919050565b7f52657075746174696f6e3a206964656e74697479206973207a65726f206164645f8201527f7265737300000000000000000000000000000000000000000000000000000000602082015250565b5f610310602483610218565b915061031b826102b6565b604082019050919050565b5f6020820190508181035f83015261033d81610304565b9050919050565b60805160a0516117716103735f395f61043301525f81816101e6015281816108d90152610b4b01526117715ff3fe608060405234801561000f575f5ffd5b506004361061009c575f3560e01c80638dabe666116100645780638dabe66614610144578063b8a436e614610160578063be0613a21461017c578063db80bb9a146101ac578063e474e6c0146101c85761009c565b806306433b1b146100a05780630762bb1b146100be578063150c4aea146100da57806332270cdd146100f857806389370d8b14610114575b5f5ffd5b6100a86101e4565b6040516100b59190610fb1565b60405180910390f35b6100d860048036038101906100d39190611001565b610208565b005b6100e2610431565b6040516100ef919061109a565b60405180910390f35b610112600480360381019061010d9190611001565b610455565b005b61012e600480360381019061012991906110b3565b61067d565b60405161013b9190611153565b60405180910390f35b61015e600480360381019061015991906110b3565b6106d8565b005b61017a60048036038101906101759190611196565b6108d7565b005b61019660048036038101906101919190611196565b610af7565b6040516101a391906111db565b60405180910390f35b6101c660048036038101906101c19190611196565b610b49565b005b6101e260048036038101906101dd91906110b3565b610cfa565b005b7f000000000000000000000000000000000000000000000000000000000000000081565b60015f3373ffffffffffffffffffffffffffffffffffffffff1673ffffffffffffffffffffffffffffffffffffffff1681526020019081526020015f205f9054906101000a900460ff16610291576040517f08c379a000000000000000000000000000000000000000000000000000000000815260040161028890611274565b60405180910390fd5b5f82036102d3576040517f08c379a00000000000000000000000000000000000000000000000000000000081526004016102ca906112dc565b60405180910390fd5b5f5f8381526020019081526020015f206002015f8154809291906102f690611327565b9190505550805f5f8481526020019081526020015f206003015f82825461031d919061136e565b925050819055506103785f5f8481526020019081526020015f206040518060a00160405290815f8201548152602001600182015481526020016002820154815260200160038201548152602001600482015481525050610ef9565b5f5f8481526020019081526020015f2060040181905550817ff347ec08780b5c052d16e95259fef9efff36d1de4b9c81ce24c385a11efe3aa45f5f8581526020019081526020015f205f01545f5f8681526020019081526020015f20600101545f5f8781526020019081526020015f20600201545f5f8881526020019081526020015f20600301545f5f8981526020019081526020015f20600401546040516104259594939291906113b0565b60405180910390a25050565b7f000000000000000000000000000000000000000000000000000000000000000081565b60015f3373ffffffffffffffffffffffffffffffffffffffff1673ffffffffffffffffffffffffffffffffffffffff1681526020019081526020015f205f9054906101000a900460ff166104de576040517f08c379a00000000000000000000000000000000000000000000000000000000081526004016104d590611274565b60405180910390fd5b5f8203610520576040517f08c379a0000000000000000000000000000000000000000000000000000000008152600401610517906112dc565b60405180910390fd5b5f5f8381526020019081526020015f205f015f81548092919061054290611327565b9190505550805f5f8481526020019081526020015f206003015f828254610569919061136e565b925050819055506105c45f5f8481526020019081526020015f206040518060a00160405290815f8201548152602001600182015481526020016002820154815260200160038201548152602001600482015481525050610ef9565b5f5f8481526020019081526020015f2060040181905550817ff347ec08780b5c052d16e95259fef9efff36d1de4b9c81ce24c385a11efe3aa45f5f8581526020019081526020015f205f01545f5f8681526020019081526020015f20600101545f5f8781526020019081526020015f20600201545f5f8881526020019081526020015f20600301545f5f8981526020019081526020015f20600401546040516106719594939291906113b0565b60405180910390a25050565b610685610f48565b5f5f8381526020019081526020015f206040518060a00160405290815f82015481526020016001820154815260200160028201548152602001600382015481526020016004820154815250509050919050565b60015f3373ffffffffffffffffffffffffffffffffffffffff1673ffffffffffffffffffffffffffffffffffffffff1681526020019081526020015f205f9054906101000a900460ff16610761576040517f08c379a000000000000000000000000000000000000000000000000000000000815260040161075890611274565b60405180910390fd5b5f81036107a3576040517f08c379a000000000000000000000000000000000000000000000000000000000815260040161079a906112dc565b60405180910390fd5b5f5f8281526020019081526020015f206001015f8154809291906107c690611327565b919050555061081f5f5f8381526020019081526020015f206040518060a00160405290815f8201548152602001600182015481526020016002820154815260200160038201548152602001600482015481525050610ef9565b5f5f8381526020019081526020015f2060040181905550807ff347ec08780b5c052d16e95259fef9efff36d1de4b9c81ce24c385a11efe3aa45f5f8481526020019081526020015f205f01545f5f8581526020019081526020015f20600101545f5f8681526020019081526020015f20600201545f5f8781526020019081526020015f20600301545f5f8881526020019081526020015f20600401546040516108cc9594939291906113b0565b60405180910390a250565b7f000000000000000000000000000000000000000000000000000000000000000073ffffffffffffffffffffffffffffffffffffffff163373ffffffffffffffffffffffffffffffffffffffff1614610965576040517f08c379a000000000000000000000000000000000000000000000000000000000815260040161095c90611471565b60405180910390fd5b5f73ffffffffffffffffffffffffffffffffffffffff168173ffffffffffffffffffffffffffffffffffffffff16036109d3576040517f08c379a00000000000000000000000000000000000000000000000000000000081526004016109ca906114ff565b60405180910390fd5b60015f8273ffffffffffffffffffffffffffffffffffffffff1673ffffffffffffffffffffffffffffffffffffffff1681526020019081526020015f205f9054906101000a900460ff1615610a5d576040517f08c379a0000000000000000000000000000000000000000000000000000000008152600401610a549061158d565b60405180910390fd5b6001805f8373ffffffffffffffffffffffffffffffffffffffff1673ffffffffffffffffffffffffffffffffffffffff1681526020019081526020015f205f6101000a81548160ff0219169083151502179055508073ffffffffffffffffffffffffffffffffffffffff167fc3774172a8902ef661ebc4364d4b35fe9e838457d175b9f7ba230e635844618660405160405180910390a250565b5f60015f8373ffffffffffffffffffffffffffffffffffffffff1673ffffffffffffffffffffffffffffffffffffffff1681526020019081526020015f205f9054906101000a900460ff169050919050565b7f000000000000000000000000000000000000000000000000000000000000000073ffffffffffffffffffffffffffffffffffffffff163373ffffffffffffffffffffffffffffffffffffffff1614610bd7576040517f08c379a0000000000000000000000000000000000000000000000000000000008152600401610bce9061161b565b60405180910390fd5b60015f8273ffffffffffffffffffffffffffffffffffffffff1673ffffffffffffffffffffffffffffffffffffffff1681526020019081526020015f205f9054906101000a900460ff16610c60576040517f08c379a0000000000000000000000000000000000000000000000000000000008152600401610c57906116a9565b60405180910390fd5b5f60015f8373ffffffffffffffffffffffffffffffffffffffff1673ffffffffffffffffffffffffffffffffffffffff1681526020019081526020015f205f6101000a81548160ff0219169083151502179055508073ffffffffffffffffffffffffffffffffffffffff167feebe2de9b0f91cef3d5f4b82efb14076b2b8b716ed25f267b741fe6be6ae71c560405160405180910390a250565b60015f3373ffffffffffffffffffffffffffffffffffffffff1673ffffffffffffffffffffffffffffffffffffffff1681526020019081526020015f205f9054906101000a900460ff16610d83576040517f08c379a0000000000000000000000000000000000000000000000000000000008152600401610d7a90611274565b60405180910390fd5b5f8103610dc5576040517f08c379a0000000000000000000000000000000000000000000000000000000008152600401610dbc906112dc565b60405180910390fd5b5f5f8281526020019081526020015f206001015f815480929190610de890611327565b9190505550610e415f5f8381526020019081526020015f206040518060a00160405290815f8201548152602001600182015481526020016002820154815260200160038201548152602001600482015481525050610ef9565b5f5f8381526020019081526020015f2060040181905550807ff347ec08780b5c052d16e95259fef9efff36d1de4b9c81ce24c385a11efe3aa45f5f8481526020019081526020015f205f01545f5f8581526020019081526020015f20600101545f5f8681526020019081526020015f20600201545f5f8781526020019081526020015f20600301545f5f8881526020019081526020015f2060040154604051610eee9594939291906113b0565b60405180910390a250565b5f5f600a835f0151610f0b91906116c7565b90505f601e8460200151610f1f91906116c7565b9050808211610f32575f92505050610f43565b8082610f3e9190611708565b925050505b919050565b6040518060a001604052805f81526020015f81526020015f81526020015f81526020015f81525090565b5f73ffffffffffffffffffffffffffffffffffffffff82169050919050565b5f610f9b82610f72565b9050919050565b610fab81610f91565b82525050565b5f602082019050610fc45f830184610fa2565b92915050565b5f5ffd5b5f819050919050565b610fe081610fce565b8114610fea575f5ffd5b50565b5f81359050610ffb81610fd7565b92915050565b5f5f6040838503121561101757611016610fca565b5b5f61102485828601610fed565b925050602061103585828601610fed565b9150509250929050565b5f819050919050565b5f61106261105d61105884610f72565b61103f565b610f72565b9050919050565b5f61107382611048565b9050919050565b5f61108482611069565b9050919050565b6110948161107a565b82525050565b5f6020820190506110ad5f83018461108b565b92915050565b5f602082840312156110c8576110c7610fca565b5b5f6110d584828501610fed565b91505092915050565b6110e781610fce565b82525050565b60a082015f8201516111015f8501826110de565b50602082015161111460208501826110de565b50604082015161112760408501826110de565b50606082015161113a60608501826110de565b50608082015161114d60808501826110de565b50505050565b5f60a0820190506111665f8301846110ed565b92915050565b61117581610f91565b811461117f575f5ffd5b50565b5f813590506111908161116c565b92915050565b5f602082840312156111ab576111aa610fca565b5b5f6111b884828501611182565b91505092915050565b5f8115159050919050565b6111d5816111c1565b82525050565b5f6020820190506111ee5f8301846111cc565b92915050565b5f82825260208201905092915050565b7f52657075746174696f6e3a2063616c6c6572206e6f7420617574686f72697a655f8201527f6400000000000000000000000000000000000000000000000000000000000000602082015250565b5f61125e6021836111f4565b915061126982611204565b604082019050919050565b5f6020820190508181035f83015261128b81611252565b9050919050565b7f52657075746174696f6e3a206964656e746974794964206973207a65726f00005f82015250565b5f6112c6601e836111f4565b91506112d182611292565b602082019050919050565b5f6020820190508181035f8301526112f3816112ba565b9050919050565b7f4e487b71000000000000000000000000000000000000000000000000000000005f52601160045260245ffd5b5f61133182610fce565b91507fffffffffffffffffffffffffffffffffffffffffffffffffffffffffffffffff8203611363576113626112fa565b5b600182019050919050565b5f61137882610fce565b915061138383610fce565b925082820190508082111561139b5761139a6112fa565b5b92915050565b6113aa81610fce565b82525050565b5f60a0820190506113c35f8301886113a1565b6113d060208301876113a1565b6113dd60408301866113a1565b6113ea60608301856113a1565b6113f760808301846113a1565b9695505050505050565b7f52657075746174696f6e3a206f6e6c792072656769737472792063616e2061755f8201527f74686f72697a6500000000000000000000000000000000000000000000000000602082015250565b5f61145b6027836111f4565b915061146682611401565b604082019050919050565b5f6020820190508181035f8301526114888161144f565b9050919050565b7f52657075746174696f6e3a2074656d706c617465206973207a65726f206164645f8201527f7265737300000000000000000000000000000000000000000000000000000000602082015250565b5f6114e96024836111f4565b91506114f48261148f565b604082019050919050565b5f6020820190508181035f830152611516816114dd565b9050919050565b7f52657075746174696f6e3a2074656d706c61746520616c7265616479206175745f8201527f686f72697a656400000000000000000000000000000000000000000000000000602082015250565b5f6115776027836111f4565b91506115828261151d565b604082019050919050565b5f6020820190508181035f8301526115a48161156b565b9050919050565b7f52657075746174696f6e3a206f6e6c792072656769737472792063616e2072655f8201527f766f6b6500000000000000000000000000000000000000000000000000000000602082015250565b5f6116056024836111f4565b9150611610826115ab565b604082019050919050565b5f6020820190508181035f830152611632816115f9565b9050919050565b7f52657075746174696f6e3a2074656d706c617465206e6f7420617574686f72695f8201527f7a65640000000000000000000000000000000000000000000000000000000000602082015250565b5f6116936023836111f4565b915061169e82611639565b604082019050919050565b5f6020820190508181035f8301526116c081611687565b9050919050565b5f6116d182610fce565b91506116dc83610fce565b92508282026116ea81610fce565b91508282048414831517611701576117006112fa565b5b5092915050565b5f61171282610fce565b915061171d83610fce565b9250828203905081811115611735576117346112fa565b5b9291505056fea2646970667358221220dafb509b8d647e15b1715d5ec8ade094aa84c9f7de4f78a679db9f646dc41c5464736f6c634300081c0033",
  "linkReferences": {},
  "deployedLinkReferences": {},
  "immutableReferences": {
    "51688": [
      {
        "length": 32,
        "start": 486
      },
      {
        "length": 32,
        "start": 2265
      },
      {
        "length": 32,
        "start": 2891
      }
    ],
    "51692": [
      {
        "length": 32,
        "start": 1075
      }
    ]
  },
  "inputSourceName": "project/contracts/Reputation.sol",
  "buildInfoId": "solc-0_8_28-5b95794abf94b5d366960db80222657f726683f5"
}