{
  "_format": "hh3-artifact-1",
  "contractName": "VerificationRegistry",
  "sourceName": "contracts/VerificationRegistry.sol",
  "abi": [
    {
      "inputs": [
        {
          "internalType": "address",
          "name": "identity",
          "type": "address"
        }
      ],
      "stateMutability": "nonpayable",
      "type": "constructor"
    },
    {
      "anonymous": false,
      "inputs": [
        {
          "indexed": true,
          "internalType": "uint256",
          "name": "identityId",
          "type": "uint256"
        }
      ],
      "name": "AttestationRevoked",
      "type": "event"
    },
    {
      "anonymous": false,
      "inputs": [
        {
          "indexed": true,
          "internalType": "uint256",
          "name": "identityId",
          "type": "uint256"
        },
        {
          "indexed": false,
          "internalType": "bytes32",
          "name": "claim",
          "type": "bytes32"
        },
        {
          "indexed": true,
          "internalType": "address",
          "name": "issuer",
          "type": "address"
        },
        {
          "indexed": false,
          "internalType": "uint256",
          "name": "expiresAt",
          "type": "uint256"
        }
      ],
      "name": "AttestationSet",
      "type": "event"
    },
    {
      "inputs": [],
      "name": "IDENTITY",
      "outputs": [
        {
          "internalType": "contract IIdentity",
          "name": "",
          "type": "address"
        }
      ],
      "stateMutability": "view",
      "type": "function"
    },
    {
      "inputs": [
        {
          "internalType": "uint256",
          "name": "identityId",
          "type": "uint256"
        }
      ],
      "name": "getAttestation",
      "outputs": [
        {
          "components": [
            {
              "internalType": "bytes32",
              "name": "claim",
              "type": "bytes32"
            },
            {
              "internalType": "address",
              "name": "issuer",
              "type": "address"
            },
            {
              "internalType": "uint256",
              "name": "issuedAt",
              "type": "uint256"
            },
            {
              "internalType": "uint256",
              "name": "expiresAt",
              "type": "uint256"
            },
            {
              "internalType": "bool",
              "name": "revoked",
              "type": "bool"
            }
          ],
          "internalType": "struct IVerification.Attestation",
          "name": "attestation",
          "type": "tuple"
        }
      ],
      "stateMutability": "view",
      "type": "function"
    },
    {
      "inputs": [
        {
          "internalType": "uint256",
          "name": "identityId",
          "type": "uint256"
        }
      ],
      "name": "isVerified",
      "outputs": [
        {
          "internalType": "bool",
          "name": "verified",
          "type": "bool"
        }
      ],
      "stateMutability": "view",
      "type": "function"
    },
    {
      "inputs": [],
      "name": "owner",
      "outputs": [
        {
          "internalType": "address",
          "name": "",
          "type": "address"
        }
      ],
      "stateMutability": "view",
      "type": "function"
    },
    {
      "inputs": [
        {
          "internalType": "uint256",
          "name": "identityId",
          "type": "uint256"
        }
      ],
      "name": "revokeAttestation",
      "outputs": [],
      "stateMutability": "nonpayable",
      "type": "function"
    },
    {
      "inputs": [
        {
          "internalType": "uint256",
          "name": "identityId",
          "type": "uint256"
        },
        {
          "components": [
            {
              "internalType": "bytes32",
              "name": "claim",
              "type": "bytes32"
            },
            {
              "internalType": "address",
              "name": "issuer",
              "type": "address"
            },
            {
              "internalType": "uint256",
              "name": "issuedAt",
              "type": "uint256"
            },
            {
              "internalType": "uint256",
              "name": "expiresAt",
              "type": "uint256"
            },
            {
              "internalType": "bool",
              "name": "revoked",
              "type": "bool"
            }
          ],
          "internalType": "struct IVerification.Attestation",
          "name": "attestation",
          "type": "tuple"
        }
      ],
      "name": "setAttestation",
      "outputs": [],
      "stateMutability": "nonpayable",
      "type": "function"
    },
    {
      "inputs": [
        {
          "internalType": "address",
          "name": "newOwner",
          "type": "address"
        }
      ],
      "name": "transferOwnership",
      "outputs": [],
      "stateMutability": "nonpayable",
      "type": "function"
    }
  ],
  "bytecode": "0x60a060405234801561000f575f5ffd5b5060405161167138038061167183398181016040528101906100319190610177565b5f73ffffffffffffffffffffffffffffffffffffffff168173ffffffffffffffffffffffffffffffffffffffff160361009f576040517f08c379a000000000000000000000000000000000000000000000000000000000815260040161009690610222565b60405180910390fd5b8073ffffffffffffffffffffffffffffffffffffffff1660808173ffffffffffffffffffffffffffffffffffffffff16815250503360015f6101000a81548173ffffffffffffffffffffffffffffffffffffffff021916908373ffffffffffffffffffffffffffffffffffffffff16021790555050610240565b5f5ffd5b5f73ffffffffffffffffffffffffffffffffffffffff82169050919050565b5f6101468261011d565b9050919050565b6101568161013c565b8114610160575f5ffd5b50565b5f815190506101718161014d565b92915050565b5f6020828403121561018c5761018b610119565b5b5f61019984828501610163565b91505092915050565b5f82825260208201905092915050565b7f566572696669636174696f6e52656769737472793a206964656e7469747920695f8201527f73207a65726f2061646472657373000000000000000000000000000000000000602082015250565b5f61020c602e836101a2565b9150610217826101b2565b604082019050919050565b5f6020820190508181035f83015261023981610200565b9050919050565b60805161141261025f5f395f818161017101526104bb01526114125ff3fe608060405234801561000f575f5ffd5b506004361061007b575f3560e01c806356326b411161005957806356326b41146100fd5780637fbb1949146101195780638da5cb5b14610135578063f2fde38b146101535761007b565b8063150c4aea1461007f57806329be4db21461009d57806337b6d96b146100cd575b5f5ffd5b61008761016f565b6040516100949190610ad9565b60405180910390f35b6100b760048036038101906100b29190610b32565b610193565b6040516100c49190610c24565b60405180910390f35b6100e760048036038101906100e29190610b32565b610249565b6040516100f49190610c4c565b60405180910390f35b61011760048036038101906101129190610c87565b610321565b005b610133600480360381019061012e9190610b32565b610737565b005b61013d6108b8565b60405161014a9190610cd4565b60405180910390f35b61016d60048036038101906101689190610d17565b6108dd565b005b7f000000000000000000000000000000000000000000000000000000000000000081565b61019b610a1d565b5f5f8381526020019081526020015f206040518060a00160405290815f8201548152602001600182015f9054906101000a900473ffffffffffffffffffffffffffffffffffffffff1673ffffffffffffffffffffffffffffffffffffffff1673ffffffffffffffffffffffffffffffffffffffff1681526020016002820154815260200160038201548152602001600482015f9054906101000a900460ff1615151515815250509050919050565b5f5f5f5f8481526020019081526020015f206040518060a00160405290815f8201548152602001600182015f9054906101000a900473ffffffffffffffffffffffffffffffffffffffff1673ffffffffffffffffffffffffffffffffffffffff1673ffffffffffffffffffffffffffffffffffffffff1681526020016002820154815260200160038201548152602001600482015f9054906101000a900460ff161515151581525050905080608001511580156103095750428160600151115b801561031957505f816040015114155b915050919050565b60015f9054906101000a900473ffffffffffffffffffffffffffffffffffffffff1673ffffffffffffffffffffffffffffffffffffffff163373ffffffffffffffffffffffffffffffffffffffff16146103b0576040517f08c379a00000000000000000000000000000000000000000000000000000000081526004016103a790610dc2565b60405180910390fd5b5f82036103f2576040517f08c379a00000000000000000000000000000000000000000000000000000000081526004016103e990610e50565b60405180910390fd5b42816060013511610438576040517f08c379a000000000000000000000000000000000000000000000000000000000815260040161042f90610ede565b60405180910390fd5b5f73ffffffffffffffffffffffffffffffffffffffff168160200160208101906104629190610d17565b73ffffffffffffffffffffffffffffffffffffffff16036104b8576040517f08c379a00000000000000000000000000000000000000000000000000000000081526004016104af90610f6c565b60405180910390fd5b5f7f000000000000000000000000000000000000000000000000000000000000000073ffffffffffffffffffffffffffffffffffffffff166385e3f058846040518263ffffffff1660e01b81526004016105129190610f99565b60a060405180830381865afa15801561052d573d5f5f3e3d5ffd5b505050506040513d601f19601f820116820180604052508101906105519190611143565b905082815f015114610598576040517f08c379a000000000000000000000000000000000000000000000000000000000815260040161058f906111de565b60405180910390fd5b80606001516105dc576040517f08c379a00000000000000000000000000000000000000000000000000000000081526004016105d39061126c565b60405180910390fd5b6040518060a00160405280835f013581526020018360200160208101906106039190610d17565b73ffffffffffffffffffffffffffffffffffffffff168152602001428152602001836060013581526020015f15158152505f5f8581526020019081526020015f205f820151815f01556020820151816001015f6101000a81548173ffffffffffffffffffffffffffffffffffffffff021916908373ffffffffffffffffffffffffffffffffffffffff16021790555060408201518160020155606082015181600301556080820151816004015f6101000a81548160ff0219169083151502179055509050508160200160208101906106db9190610d17565b73ffffffffffffffffffffffffffffffffffffffff16837ff6def7e49f3d41bd493d800483f7f66010e8b9c41ef1b7cfb86e8b9868bea2b1845f0135856060013560405161072a929190611299565b60405180910390a3505050565b60015f9054906101000a900473ffffffffffffffffffffffffffffffffffffffff1673ffffffffffffffffffffffffffffffffffffffff163373ffffffffffffffffffffffffffffffffffffffff16146107c6576040517f08c379a00000000000000000000000000000000000000000000000000000000081526004016107bd90610dc2565b60405180910390fd5b5f8103610808576040517f08c379a00000000000000000000000000000000000000000000000000000000081526004016107ff90610e50565b60405180910390fd5b5f5f5f8381526020019081526020015f20600201540361085d576040517f08c379a000000000000000000000000000000000000000000000000000000000815260040161085490611330565b60405180910390fd5b60015f5f8381526020019081526020015f206004015f6101000a81548160ff021916908315150217905550807f2cf37b6393103617c10b15f56039e3bd6fc1b07320419c47020a05a36805e04460405160405180910390a250565b60015f9054906101000a900473ffffffffffffffffffffffffffffffffffffffff1681565b60015f9054906101000a900473ffffffffffffffffffffffffffffffffffffffff1673ffffffffffffffffffffffffffffffffffffffff163373ffffffffffffffffffffffffffffffffffffffff161461096c576040517f08c379a000000000000000000000000000000000000000000000000000000000815260040161096390610dc2565b60405180910390fd5b5f73ffffffffffffffffffffffffffffffffffffffff168173ffffffffffffffffffffffffffffffffffffffff16036109da576040517f08c379a00000000000000000000000000000000000000000000000000000000081526004016109d1906113be565b60405180910390fd5b8060015f6101000a81548173ffffffffffffffffffffffffffffffffffffffff021916908373ffffffffffffffffffffffffffffffffffffffff16021790555050565b6040518060a001604052805f81526020015f73ffffffffffffffffffffffffffffffffffffffff1681526020015f81526020015f81526020015f151581525090565b5f73ffffffffffffffffffffffffffffffffffffffff82169050919050565b5f819050919050565b5f610aa1610a9c610a9784610a5f565b610a7e565b610a5f565b9050919050565b5f610ab282610a87565b9050919050565b5f610ac382610aa8565b9050919050565b610ad381610ab9565b82525050565b5f602082019050610aec5f830184610aca565b92915050565b5f604051905090565b5f5ffd5b5f819050919050565b610b1181610aff565b8114610b1b575f5ffd5b50565b5f81359050610b2c81610b08565b92915050565b5f60208284031215610b4757610b46610afb565b5b5f610b5484828501610b1e565b91505092915050565b5f819050919050565b610b6f81610b5d565b82525050565b5f610b7f82610a5f565b9050919050565b610b8f81610b75565b82525050565b610b9e81610aff565b82525050565b5f8115159050919050565b610bb881610ba4565b82525050565b60a082015f820151610bd25f850182610b66565b506020820151610be56020850182610b86565b506040820151610bf86040850182610b95565b506060820151610c0b6060850182610b95565b506080820151610c1e6080850182610baf565b50505050565b5f60a082019050610c375f830184610bbe565b92915050565b610c4681610ba4565b82525050565b5f602082019050610c5f5f830184610c3d565b92915050565b5f5ffd5b5f60a08284031215610c7e57610c7d610c65565b5b81905092915050565b5f5f60c08385031215610c9d57610c9c610afb565b5b5f610caa85828601610b1e565b9250506020610cbb85828601610c69565b9150509250929050565b610cce81610b75565b82525050565b5f602082019050610ce75f830184610cc5565b92915050565b610cf681610b75565b8114610d00575f5ffd5b50565b5f81359050610d1181610ced565b92915050565b5f60208284031215610d2c57610d2b610afb565b5b5f610d3984828501610d03565b91505092915050565b5f82825260208201905092915050565b7f566572696669636174696f6e52656769737472793a2063616c6c6572206973205f8201527f6e6f74206f776e65720000000000000000000000000000000000000000000000602082015250565b5f610dac602983610d42565b9150610db782610d52565b604082019050919050565b5f6020820190508181035f830152610dd981610da0565b9050919050565b7f566572696669636174696f6e52656769737472793a206964656e7469747949645f8201527f206973207a65726f000000000000000000000000000000000000000000000000602082015250565b5f610e3a602883610d42565b9150610e4582610de0565b604082019050919050565b5f6020820190508181035f830152610e6781610e2e565b9050919050565b7f566572696669636174696f6e52656769737472793a20657870697265734174205f8201527f6d75737420626520696e20667574757265000000000000000000000000000000602082015250565b5f610ec8603183610d42565b9150610ed382610e6e565b604082019050919050565b5f6020820190508181035f830152610ef581610ebc565b9050919050565b7f566572696669636174696f6e52656769737472793a20697373756572206973205f8201527f7a65726f20616464726573730000000000000000000000000000000000000000602082015250565b5f610f56602c83610d42565b9150610f6182610efc565b604082019050919050565b5f6020820190508181035f830152610f8381610f4a565b9050919050565b610f9381610aff565b82525050565b5f602082019050610fac5f830184610f8a565b92915050565b5f5ffd5b5f601f19601f8301169050919050565b7f4e487b71000000000000000000000000000000000000000000000000000000005f52604160045260245ffd5b610ffc82610fb6565b810181811067ffffffffffffffff8211171561101b5761101a610fc6565b5b80604052505050565b5f61102d610af2565b90506110398282610ff3565b919050565b5f8151905061104c81610b08565b92915050565b5f8151905061106081610ced565b92915050565b61106f81610b5d565b8114611079575f5ffd5b50565b5f8151905061108a81611066565b92915050565b61109981610ba4565b81146110a3575f5ffd5b50565b5f815190506110b481611090565b92915050565b5f60a082840312156110cf576110ce610fb2565b5b6110d960a0611024565b90505f6110e88482850161103e565b5f8301525060206110fb84828501611052565b602083015250604061110f8482850161107c565b6040830152506060611123848285016110a6565b60608301525060806111378482850161103e565b60808301525092915050565b5f60a0828403121561115857611157610afb565b5b5f611165848285016110ba565b91505092915050565b7f566572696669636174696f6e52656769737472793a206964656e7469747920645f8201527f6f6573206e6f7420657869737400000000000000000000000000000000000000602082015250565b5f6111c8602d83610d42565b91506111d38261116e565b604082019050919050565b5f6020820190508181035f8301526111f5816111bc565b9050919050565b7f566572696669636174696f6e52656769737472793a206964656e7469747920695f8201527f73206e6f74206163746976650000000000000000000000000000000000000000602082015250565b5f611256602c83610d42565b9150611261826111fc565b604082019050919050565b5f6020820190508181035f8301526112838161124a565b9050919050565b61129381610b5d565b82525050565b5f6040820190506112ac5f83018561128a565b6112b96020830184610f8a565b9392505050565b7f566572696669636174696f6e52656769737472793a206174746573746174696f5f8201527f6e206e6f7420666f756e64000000000000000000000000000000000000000000602082015250565b5f61131a602b83610d42565b9150611325826112c0565b604082019050919050565b5f6020820190508181035f8301526113478161130e565b9050919050565b7f566572696669636174696f6e52656769737472793a206e6577206f776e6572205f8201527f6973207a65726f20616464726573730000000000000000000000000000000000602082015250565b5f6113a8602f83610d42565b91506113b38261134e565b604082019050919050565b5f6020820190508181035f8301526113d58161139c565b905091905056fea2646970667358221220660e78a32878a95a7df5489f86633a562036925588be3bbe250a27dae526f0cc64736f6c634300081c0033",
  "linkReferences": {},
  "deployedLinkReferences": {},
  "immutableReferences": {
    "55643": [
      {
        "length": 32,
        "start": 369
      },
      {
        "length": 32,
        "start": 1211
      }
    ]
  },
  "inputSourceName": "project/contracts/VerificationRegistry.sol",
  "buildInfoId": "solc-0_8_28-5b95794abf94b5d366960db80222657f726683f5"
}